:020000040800F2
:100000000004002049300108DD700008DF7000089E
:10001000997100089B7100089D71000800000000A4
:100020000000000000000000000000009F710008B8
:10003000A171000800000000A3710008A57100086C
:1000400079300108615800088130010885300108C5
:10005000893001088D300108913001089530010880
:10006000993001089D300108A1300108A530010830
:10007000A9300108AD300108B1300108B5300108E0
:10008000B9300108BD300108C1300108C530010890
:10009000C9300108CD300108D1300108635800088B
:1000A000D9300108DD300108E1300108E5300108F0
:1000B000E9300108ED300108F1300108F5300108A0
:1000C000F9300108FD30010801310108053101084E
:1000D000093101080D3101081131010815310108FC
:1000E000193101081D3101082131010825310108AC
:1000F000B95800082D3101083131010835310108A6
:10010000393101083D31010841310108453101080B
:10011000493101084D3101085131010855310108BB
:10012000593101085D31010861310108653101086B
:10013000DFF8D80A03210170DFF8D40A0121017029
:10014000DFF8D00AC088401CDFF8CC1A0870DFF84E
:10015000C80A01214170DFF8C00A01218170DFF86F
:10016000B80A0121C170DFF8B00A01210171DFF87E
:10017000A80A01214171DFF8A00A01218171DFF88D
:10018000980A0121C171DFF8580C002101707047F5
:1001900080B5DFF8880A007850F4506080B202F031
:1001A00054FDDFF8780A407850F4406080B202F0E5
:1001B0004CFDDFF8680A807850F4306080B202F0BD
:1001C00044FDDFF8580AC07850F4206080B202F095
:1001D0003CFDDFF8480A007950F4106080B202F06C
:1001E00034FDDFF8380A407950F4006080B202F044
:1001F0002CFD01BD80B5DFF8280A0068B0F57A6FE4
:1002000040F2A680DFF8180A01210160DFF8FC093E
:100210000078012804D00CD3032807D003D308E0CA
:1002200000F0E2FD05E000F03FFE02E001F0CEF854
:10023000FFE7DFF8F0090078002819D1DFF8E809B6
:1002400090F82400012813D1DFF8C00903210170C0
:10025000DFF8BC0901210170DFF8BC09142101702D
:10026000DFF87C0B01210170DFF8B8090121017072
:10027000DFF8B40990F82400002803D1DFF8A409BE
:1002800000210170DFF8A00990F8240001285DD159
:10029000DFF898090078002824D1DFF88009007879
:1002A00050F08000DFF874190870DFF870094078AA
:1002B00050F08000DFF864194870DFF8600980783A
:1002C00050F08000DFF854198870DFF85009C078CA
:1002D00050F08000DFF84419C870DFF850090121A0
:1002E000017033E0DFF83409007810F07F00DFF8A8
:1002F0002C190870DFF82409407810F07F00DFF82F
:100300001C194870DFF81409807810F07F00DFF8BE
:100310000C198870DFF80409C07810F07F00DFF84E
:10032000FC18C870DFF8F408007910F07F00DFF8DF
:10033000EC180871DFF8E408407910F07F00DFF86E
:10034000DC184871DFF8E40800210170FFF720FF96
:1003500002F0A4FCDFF8301B0880DFF82C0B0088CB
:1003600040280DD2DFF8240B00210160DFF8740A69
:1003700042F210710160DFF8180B0021018052E099
:10038000DFF8600A006842F2107188424BD3DFF850
:10039000F80A008820281ED3DFF8480A006842F2D5
:1003A0001071884217D3DFF8E80A0088012804D1C9
:1003B000DFF8300A42F228310160DFF8D40A008801
:1003C000002808D1DFF81C0A4FF47A610160DFF8D9
:1003D000C00A01210180DFF834080078012804D028
:1003E0000CD3032807D003D308E000F01DF805E084
:1003F00000F0ABF802E000F018FBFFE7DFF80C08B4
:100400000078012804D00CD3032807D003D308E0D8
:1004100000F0EAFC05E000F047FD02E000F0D6FF46
:10042000FFE7FFF7B5FE01BDDFF85C0A0088402852
:100430002CD0C0F08980422803D026D3432812D084
:1004400082E0DFF8CC070078022807D3DFF8C00786
:100450000078401EDFF8B817087003E0DFF8B00737
:100460000821017070E0DFF8A8070078082807D29B
:10047000DFF89C070078401CDFF89417087003E051
:10048000DFF88C07012101705EE05DE0DFF87C079A
:1004900002210170DFF8480900210170DFF8F4093A
:1004A00000210160DFF8E40900210160DFF8600746
:1004B0000078042810D1DFF8700790F82800FF2892
:1004C00005D1DFF86407012180F828103BE0DFF850
:1004D0003C070121017036E0DFF834070078052879
:1004E00010D1DFF8440790F82800FF2805D1DFF885
:1004F0003807022180F8281025E0DFF810070121D5
:10050000017020E0DFF80807007807281BD1DFF82A
:100510000407B0F90000B0F5A37F10D1DFF8080799
:1005200090F8240000280AD1DFF8FC0690F8260095
:10053000022804D1DFF860090121017003E0DFF82F
:10054000CC0601210170FFE7704780B5DFF8C006D7
:10055000007801280CD023D303280FD00BD3052813
:1005600012D00ED3072815D011D3082815D017E0C4
:1005700000F017F814E000F066F811E000F022F93E
:100580000EE000F07AF90BE000F0D5F908E000F099
:10059000FFF905E000F014FA02E000F02EFAFFE7A0
:1005A00001BDDFF8E4080088402842D04AD3422841
:1005B00003D035D3432819D044E0DFF85C06007837
:1005C000022807D3DFF850060078401EDFF84816EF
:1005D00008700AE0DFF838060078DFF8C018401825
:1005E00010F8010CDFF8301608702BE0DFF8280651
:1005F0000078DFF81C160978DFF8A028891811F8B0
:10060000011C884207D2DFF810060078401CDFF892
:100610000816087003E0DFF800060121017011E000
:10062000DFF8E80501210170DFF8B407002101704F
:1006300008E0DFF8D80503210170DFF8A4070121E5
:100640000170FFE7704710B5DFF83C0800884028CC
:100650004ED0C0F0B680422803D035D3432819D0FD
:10066000AFE0DFF8B4054078022807D3DFF8A8052B
:100670004078401EDFF8A01548700AE0DFF89005CA
:100680000078DFF81818401810F8010CDFF888150A
:10069000487096E0DFF880054078DFF87415097837
:1006A000DFF8F827891811F8011C884207D2DFF813
:1006B00068054078401CDFF86015487003E0DFF8FB
:1006C0005805012141707CE0DFF8400501210170EF
:1006D000DFF80C0700210170DFF8C407002101706A
:1006E000DFF82C050078022801D102F01FFB68E03A
:1006F000DFF82005B0F9000040F28111884204D0F3
:10070000DFF81405407802285BD0DFF81C0590F86C
:100710002200012837D1DFF800054078012831D0C8
:10072000DFF8F404407802282CD0DFF8EC0440789D
:10073000042827D0DFF8E00440780D2822D0DFF825
:10074000D80440780E281DD0DFF8CC0440780F285C
:1007500018D0DFF8C4044078172813D0DFF8B804A5
:10076000407819280ED0DFF8B00440781A2809D054
:10077000DFF8A40440781B2804D0DFF89C044078FC
:100780001C2800D11DE0DFF8840403210170DFF88C
:10079000500601210170DFF80807002101700020D8
:1007A0000400A4B2502C0BD2A4B2DFF8F806A4B215
:1007B000DFF8601431F8141020F81410641CF0E70E
:1007C000FFE710BD80B5DFF8C0060088402844D0A0
:1007D00052D3422803D035D3432819D04CE0DFF858
:1007E00038048078022807D3DFF82C048078401E74
:1007F000DFF8241488700AE0DFF814040078DFF8CA
:100800009C16401810F8010CDFF80C14887033E0C7
:10081000DFF804048078DFF8F8130978DFF87C2625
:10082000891811F8011C884207D2DFF8EC038078A0
:10083000401CDFF8E413887003E0DFF8DC030121DB
:10084000817019E002F072FADFF8C0030121017033
:10085000DFF88C05002101700EE0DFF8B003032102
:100860000170DFF87C0501210170DFF85C0BDFF817
:10087000701509780160FFE701BDDFF8AC030121C5
:1008800080F82810DFF800060088402851D051D3A6
:10089000422803D031D3432818D04BE0DFF874034B
:1008A000B0F902002421DFF8642B01FB0020C0898D
:1008B0004042DFF8E0150968884206DADFF8D4051F
:1008C0000068401EDFF8CC15086033E0DFF8C4058F
:1008D0000068DFF84013B1F902102422DFF82C3B46
:1008E00002FB0131C989884206DADFF8A8050068F1
:1008F000401CDFF8A01508601CE0DFF898050068D0
:1009000010F1C70F14DBDFF88C050068C8280FDA78
:10091000DFF81403FF2180F82810DFF878050021A4
:100920000160BA4801210170DFF8B40400210170B0
:1009300000E0FFE77047BC48022180F82810DFF88C
:1009400048050088402821D021D3422803D00DD368
:10095000432805D01BE0DFF834050121016016E0D3
:10096000DFF828055FF0FF31016010E0AE48FF219D
:1009700080F82810A54801210170DFF864040021E7
:100980000170DFF808050021016000E0FFE7704713
:10099000DFF8F4040088402810D010D3422803D098
:1009A00004D3432801D00AE009E008E09748012178
:1009B0000170DFF82C040021017000E0FFE77047B0
:1009C000DFF8C4040088402815D015D3422803D08E
:1009D00004D3432801D00FE00EE00DE0DFF8B804A7
:1009E0000078002806D1894801210170DFF8F00362
:1009F0000021017000E0FFE77047DFF88C040088F9
:100A0000402810D010D3422803D004D3432801D06B
:100A10000AE009E008E07D4801210170DFF8C00329
:100A20000021017000E0FFE7704780B5DFF8E009C2
:100A30000078012804D00CD3032807D003D308E0A2
:100A400000F008F805E000F01DF802E000F0F0F812
:100A5000FFE701BDDFF830040088402810D010D334
:100A6000422803D004D3432801D00AE009E008E07B
:100A7000664802210170DFF89C090021017000E046
:100A8000FFE7704710B5DFF80004008840286FD0FA
:100A9000C0F0BA80422803D060D3432830D0B3E0FE
:100AA000DFF8FC03002101705B484078DFF868192B
:100AB00011EB400030F9020C57494978DFF8E42384
:100AC00012EB410131F9021C884218DA5248407891
:100AD000DFF8D01311EB40004F494978DFF8C42309
:100AE00012EB410131F8021C4B4A5278DFF82C39E5
:100AF00013EB420232F8022C891A20F8021C83E020
:100B0000DFF89C030021017043484078DFF894131C
:100B100011EB400030F9020C3F494978DFF8002919
:100B200012EB410131F9021C884216DA3A4840784A
:100B3000DC4911EB400038494978DA4A12EB4101AF
:100B400031F8021C344A5278DFF8D03813EB4202F5
:100B500032F8022C511820F8021C55E02B480221D3
:100B600001709F4800210170CD48002101704BE0C9
:100B7000CC48B0F91C002749B1F91C10884216D0A6
:100B8000C848B0F91C00002802D102F074FE0EE043
:100B9000C448B0F91C00012802D102F0C7FE06E0EB
:100BA000C048B0F91C00022801D102F0FEFD00206F
:100BB0000400A4B2502C09D2A4B21648A4B2B94978
:100BC00031F8141020F81410641CF2E71248407831
:100BD000022805D102F046FFDFF8480802F094FF32
:100BE0000C48B0F9000040F24711884203D1AB48ED
:100BF0005021417002E0A9483C21417002F096F872
:100C0000A74801210170FFE710BD0000A4030020E8
:100C1000A5030020000000207C0300201C08002009
:100C2000980800209E090020040600209F0900204B
:100C300080B59548008840281DD0C0F0D08042285B
:100C400003D00CD3432805D0C9E0DFF8DC0700212E
:100C50000180C4E0DFF8D00700210180BFE0DFF8A9
:100C6000C80700210180DFF8C407022101705C4839
:100C700000210170B3E0DFF8B00700880F2807D229
:100C8000DFF8A4070088401CDFF89C170880A5E067
:100C9000DFF8940700210180DFF89407DFF894174C
:100CA00009780170DFF88807DFF888174978417004
:100CB000DFF87C07DFF87C1789788170DFF8700730
:100CC000DFF87017C978C170DFF86407DFF86417C0
:100CD00009790171DFF85807DFF858174979417130
:100CE000FFF756FA03F06BF8DFF84C1781F8210094
:100CF000DFF8440790F82100012826D1DFF83007FB
:100D0000DFF8381709780170DFF82407DFF82C17AF
:100D100049784170DFF81807DFF82017897881706B
:100D2000DFF80C07DFF81417C978C170DFF8000787
:100D3000DFF8081709790171DFF8F406DFF8FC160F
:100D400049794171FFF724FA49E0DFF8F406807829
:100D5000012801D103F05DF8DFF8E406807802286D
:100D600001D103F0AFF8DFF8D8068078032801D16D
:100D700003F079F8DFF8C8068078042801D103F081
:100D8000C7F8DFF8BC068078052801D103F0E9F840
:100D9000DFF89C06DFF8AC1609780170DFF89006E2
:100DA000DFF8A01649784170DFF88406DFF8941662
:100DB00089788170DFF87806DFF88816C978C17005
:100DC000DFF86C06DFF87C1609790171DFF8600640
:100DD000DFF8701649794171FFF7DAF9FFE701BDD5
:100DE000A109002094080020DFF8240600780621DD
:100DF000DFF8542601FB002010F8060CDFF830164F
:100E00000870DFF80C0600780621DFF83C2601FBAD
:100E1000002010F8050CDFF818164870DFF8F00510
:100E200000780621DFF8202601FB002010F8040CD2
:100E3000DFF8FC158870DFF8D80500780621DFF8A8
:100E4000082601FB002010F8030CDFF8E415C87039
:100E5000DFF8BC0500780621DFF8EC2501FB002057
:100E600010F8020CDFF8C8150871DFF8A405007847
:100E70000621DFF8D42501FB002010F8010CDFF873
:100E8000B0154871704700006C09002090080020E0
:100E90006A0900208C080020A0090020840300209B
:100EA0009D090020A803002080B5DFF864050078C4
:100EB000012813D0C0F08782032800F098805CD30B
:100EC000052800F05881C0F0E180072800F0DB81A0
:100ED000C0F0B881082800F0558274E2DFF86005A0
:100EE00000780621DFF8642501FB002010F8060CCD
:100EF000DFF83C150870DFF8480500780621DFF8B8
:100F00004C2501FB002010F8050CDFF82415487073
:100F1000DFF82C0500780621DFF8302501FB0020E2
:100F200010F8040CDFF808158870DFF81405007855
:100F30000621DFF8182501FB002010F8030CDFF86C
:100F4000F014C870DFF8F80400780621DFF8FC24FC
:100F500001FB002010F8020CDFF8D4140871DFF850
:100F6000E00400780621DFF8E42401FB002010F8FB
:100F7000010CDFF8BC14487125E2DFF8B404DFF897
:100F8000D01409780170DFF8A804DFF8C414497898
:100F90004170DFF89C04DFF8B81489788170DFF8BD
:100FA0009004DFF8AC14C978C170DFF8940440787D
:100FB000401E642190FBF1F201FB12000A2190FB1C
:100FC000F1F0DFF89014405CDFF864140871DFF88A
:100FD00070044078401E0A2190FBF1F201FB1200E0
:100FE000DFF87014405CDFF848144871EBE1DFF87B
:100FF000500480780621DFF8602401FB002010F8FF
:10100000060CDFF82C140870DFF834048078062111
:10101000DFF8442401FB002010F8050CDFF8101461
:101020004870DFF81C0480780621DFF82C2401FBCF
:10103000002010F8040CDFF8F8138870DFF80004C3
:1010400080780621DFF8102401FB002010F8030C43
:10105000DFF8DC13C870DFF8E80380780621DFF8DA
:10106000F82301FB002010F8020CDFF8C41308710C
:10107000DFF8CC0380780621DFF8DC2301FB0020B9
:1010800010F8010CDFF8A81348719CE1DFF8A00309
:101090006D210170DFF8C4030068002801D400202E
:1010A00000E04020DFF888134870DFF8B0030068E4
:1010B00002F078FF4FF47A71884212DBDFF89C036C
:1010C000006802F06FFF42F2107190FBF1F201FB39
:1010D00012004FF47A7190FBF1F0DFF87813405C66
:1010E00000E00020DFF848138870DFF87003006824
:1010F00002F058FF642811DBDFF86003006802F09B
:1011000051FF4FF47A7190FBF1F201FB1200642160
:1011100090FBF1F0DFF83C13405C00E00020DFF8CA
:101120001013C870DFF83403006802F03BFF0A2890
:1011300010DBDFF82803006802F034FF642190FB25
:10114000F1F201FB12000A2190FBF1F0DFF8041329
:10115000405C00E00020B6490871C048006802F019
:1011600021FF0A2190FBF1F201FB1200B949405C1A
:10117000AF49487127E1AE480E210170B8480068B8
:10118000002801D4002000E04020A9494870B4485C
:10119000006802F007FF4FF47A71884210DBB04814
:1011A000006802F0FFFE42F2107190FBF1F201FBC9
:1011B00012004FF47A7190FBF1F0A649405C00E018
:1011C00000209B498870A648006802F0EBFE642866
:1011D0000FDBA348006802F0E5FE4FF47A7190FB44
:1011E000F1F201FB1200642190FBF1F09949405C9F
:1011F00000E000208E49C8709948006802F0D2FED5
:101200000A280EDB9648006802F0CCFE642190FBB1
:10121000F1F201FB12000A2190FBF1F08D49405CD4
:1012200000E00020824908718D48006802F0BAFE93
:101230000A2190FBF1F201FB12008649405C7C49D7
:101240004871C0E0724800788249401810F8010CDB
:101250007749087076487F494978417078488079A5
:101260007C49401810F8010C714988707048794920
:10127000C978C1706E487749097901716C48754920
:10128000497941719FE077480068002801D4002027
:1012900000E04020664908707248006802F082FE53
:1012A00042F2107188420FDB6E48006802F07AFE4D
:1012B0006D4990FBF1F201FB120042F2107190FBBC
:1012C000F1F06449405C00E00020594948706548ED
:1012D000006802F067FE4FF47A71884210DB6148C3
:1012E000006802F05FFE42F2107190FBF1F201FB28
:1012F00012004FF47A7190FBF1F05649405C00E027
:1013000000204B4988705748006802F04BFE642863
:101310000FDB5448006802F045FE4FF47A7190FBF1
:10132000F1F201FB1200642190FBF1F04949405CAD
:1013300000E000203E49C8704A48006802F032FED2
:101340000A280EDB4748006802F02CFE642190FB5F
:10135000F1F201FB12000A2190FBF1F03D49405CE3
:1013600000E00020324908713E48006802F01AFE91
:101370000A2190FBF1F201FB12003649405C2C4936
:10138000487120E0224800783249401810F8010CDA
:101390002749087026482F49497841702848C07964
:1013A0002C49401810F8010C21498870204829491F
:1013B000C978C1701E482749097901711C4825491F
:1013C00049794171FFE701BD8808002080B51048C8
:1013D000007801280CD017D303280FD00BD3052891
:1013E0000ED00CD307280DD00BD308280BD00BE060
:1013F00000F03CF808E001F025FA05E004E003E025
:1014000002E001E000E0FFE701BD0000DCD40008DD
:10141000A5030020A109002040010020E0010020D8
:10142000A0000020D805002068090020A4030020A7
:101430001C0800209C0300200406002094030020C8
:101440007C0300208C030020000300208002002089
:101450007403002068030020300300208C08002063
:1014600090080020E4080020A08601002DE9F04F3C
:1014700085B0DFF8200E0078012835D0C1F0D18189
:10148000032800F07A81C0F0BB80052800F0F682C6
:10149000C0F03782072800F04984C0F0B3830928E0
:1014A00000F02685C0F0D4840B2800F0E985C0F058
:1014B00088850D2800F05C86C0F005860F2800F0B6
:1014C0002687C0F0D386112801F03980C0F0AB87A1
:1014D000132801F0FB80C1F08780152801F0868178
:1014E000C1F0388101F09DB9DFF8AC0DC06802F0A1
:1014F00059FDDFF8A81D0860DFF89C0DC0680028C2
:1015000001D4002000E04020DFF8941D0870DFF8CF
:101510008C0D006842F21071884210D3DFF87C0D08
:101520000068DFF8801DB0FBF1F201FB120042F20F
:101530001071B0FBF1F0DFF8701D405C00E000209E
:10154000DFF85C1D4870DFF8540D00684FF47A71C5
:10155000884210D3DFF8440D006842F21071B0FBEE
:10156000F1F201FB12004FF47A71B0FBF1F0DFF8F9
:10157000381D405C00E00020DFF8241D8870DFF893
:101580001C0D006864280FD3DFF8100D00684FF4BD
:101590007A71B0FBF1F201FB12006421B0FBF1F0B3
:1015A000DFF8041D405C00E00020DFF8F41CC87088
:1015B000DFF8E80C00680A280ED3DFF8E00C0068BA
:1015C0006421B0FBF1F201FB12000A21B0FBF1F043
:1015D000DFF8D41C405C00E00020DFF8C41C087178
:1015E000DFF8B80C00680A21B0FBF1F201FB120031
:1015F000DFF8B41C405CDFF8A81C487101F011B999
:10160000DFF8E80D00680190DFF8E40D0068009055
:10161000DFF8E00D406A0700019802F0C9FC80463F
:101620008946009802F0C4FC42464B4602F0D8FCC2
:10163000CDE90201380002F0BBFC02000B00DDE93D
:10164000020102F09FFD04000D002000290000228D
:10165000002302F00BFE01D8002000E04020DFF85C
:10166000401C0870200029000022DFF88C3D02F0A9
:1016700015FE82468B465046594602F033FF06005F
:10168000300002F095FC82468B460020DFF8681D92
:1016900052465B4602F0A4FC02000B002000290029
:1016A00002F04CFFCDE90201DDE9020102F01AFF70
:1016B0000600DFF8F00B96FBF0F100FB116002F082
:1016C00071FCDFF8381D0860DFF8300D0068DFF8C6
:1016D000D41BB0FBF1F201FB120042F21071B0FB1F
:1016E000F1F0DFF8C41B405CDFF8B41B4870DFF892
:1016F0000C0D006842F21071B0FBF1F201FB120018
:101700004FF47A71B0FBF1F0DFF89C1B405CDFF81E
:10171000901B8870DFF8E40C00684FF47A71B0FB1E
:10172000F1F201FB12006421B0FBF1F0DFF8781B4D
:10173000405CDFF86C1BC870DFF8C00C00686421E7
:10174000B0FBF1F201FB12000A21B0FBF1F0DFF86F
:10175000581B405CDFF8481B0871DFF8A00C0068DC
:101760000A21B0FBF1F201FB1200DFF83C1B405CE8
:10177000DFF82C1B487101F054B8DFF8700C0068DA
:101780000190DFF86C0C00680090DFF8680C406A8C
:101790000700019802F00CFC80468946009802F090
:1017A00007FC42464B4602F01BFCCDE90201380023
:1017B00002F0FEFB02000B00DDE9020102F0E2FC98
:1017C00004000D00200029000022002302F04EFD3D
:1017D00001D8002000E04020DFF8C41A0870200083
:1017E00029000022DFF8103C02F058FD82468B46AB
:1017F0005046594602F076FE0600DFF8A80A96FB2E
:10180000F0F100FB116002F0CDFBDFF8C81D0860AD
:10181000DFF8C00D006842F21071884210D3DFF883
:10182000B40D0068DFF87C1AB0FBF1F201FB120086
:1018300042F21071B0FBF1F0DFF86C1A405C00E08E
:101840000020DFF85C1A4870DFF8880D00684FF45C
:101850007A71884210D3DFF87C0D006842F2107173
:10186000B0FBF1F201FB12004FF47A71B0FBF1F022
:10187000DFF8341A405C00E00020DFF8241A88709A
:10188000DFF8500D006864280FD3DFF8480D0068BA
:101890004FF47A71B0FBF1F201FB12006421B0FB4E
:1018A000F1F0DFF8041A405C00E00020DFF8F019E6
:1018B000C870DFF8200D00680A280ED3DFF8140D79
:1018C00000686421B0FBF1F201FB12000A21B0FBB9
:1018D000F1F0DFF8D419405C00E00020DFF8C01917
:1018E0000871DFF8F00C00680A21B0FBF1F201FB8F
:1018F0001200DFF8B419405CDFF8A419487100F059
:1019000090BFDFF8E80A00680190DFF8E40A006899
:101910000090DFF8A00D00680700019802F048FB76
:1019200080468946009802F043FB42464B4602F04F
:1019300057FBCDE90201380002F03AFB02000B0030
:10194000DDE9020102F01EFC04000D002000290068
:101950000022002302F08AFC01D8002000E0402091
:10196000DFF83C190870200029000022DFF8883ACF
:1019700002F094FC82468B465046594602F0B2FD76
:101980000600300002F014FB82468B460020DFF890
:10199000681A52465B4602F023FB02000B0020004F
:1019A000290002F0CBFDCDE90201DDE9020102F0E0
:1019B00099FD0600DFF8EC0896FBF0F100FB1160E2
:1019C00002F0F0FADFF8F01C0860DFF8EC0C0068B9
:1019D000DFF8D018B0FBF1F201FB120042F21071F7
:1019E000B0FBF1F0DFF8C018405CDFF8B4184870C5
:1019F000DFF8C40C006842F21071B0FBF1F201FB99
:101A000012004FF47A71B0FBF1F0DFF89C18405CE3
:101A1000DFF88C188870DFF8A00C00684FF47A713A
:101A2000B0FBF1F201FB12006421B0FBF1F0DFF832
:101A30007818405CDFF86818C870DFF87C0C006824
:101A40006421B0FBF1F201FB12000A21B0FBF1F0BE
:101A5000DFF85418405CDFF848180871DFF8580CBC
:101A600000680A21B0FBF1F201FB1200DFF8381820
:101A7000405CDFF82C18487100F0D3BEDFF86C0929
:101A800000680190DFF8680900680090DFF8240C16
:101A900000680700019802F08BFA8046894600989A
:101AA00002F086FA42464B4602F09AFACDE902016C
:101AB000380002F07DFA02000B00DDE9020102F0BD
:101AC00061FB04000D00200029000022002302F029
:101AD000CDFB01D8002000E04020DFF8C4170870DB
:101AE000200029000022DFF8103902F0D7FB8246DF
:101AF0008B465046594602F0F5FC0600DFF8A40775
:101B000096FBF0F100FB116002F04CFADFF8181DB3
:101B10000860DFF8140D006842F21071884210D39B
:101B2000DFF8040D0068DFF87C17B0FBF1F201FB71
:101B3000120042F21071B0FBF1F0DFF86C17405C5C
:101B400000E00020DFF858174870DFF8DC0C006870
:101B50004FF47A71884210D3DFF8CC0C006842F25F
:101B60001071B0FBF1F201FB12004FF47A71B0FB7F
:101B7000F1F0DFF83417405C00E00020DFF82017B8
:101B80008870DFF8A40C006864280FD3DFF8980C85
:101B900000684FF47A71B0FBF1F201FB120064218E
:101BA000B0FBF1F0DFF80017405C00E00020DFF848
:101BB000F016C870DFF8700C00680A280ED3DFF842
:101BC000680C00686421B0FBF1F201FB12000A21ED
:101BD000B0FBF1F0DFF8D016405C00E00020DFF849
:101BE000C0160871DFF8400C00680A21B0FBF1F262
:101BF00001FB1200DFF8B016405CDFF8A416487154
:101C000000F00FBEDFF8240CB0F90000DFF89416E6
:101C100090FBF1F201FB120002F0C4F9DFF8101C96
:101C20000860DFF8080CB0F90000002801D400209B
:101C300000E04020DFF868160870DFF8F40B006859
:101C400042F21071884210D3DFF8E40B0068DFF82D
:101C50005416B0FBF1F201FB120042F21071B0FB1E
:101C6000F1F0DFF84416405C00E00020DFF83016A9
:101C70004870DFF8BC0B00684FF47A71884210D3CB
:101C8000DFF8AC0B006842F21071B0FBF1F201FB1F
:101C900012004FF47A71B0FBF1F0DFF80C16405CE3
:101CA00000E00020DFF8F8158870DFF8840B00688A
:101CB00064280FD3DFF8780B00684FF47A71B0FB1B
:101CC000F1F201FB12006421B0FBF1F0DFF8D8154E
:101CD000405C00E00020DFF8C815C870DFF8500B4A
:101CE00000680A280ED3DFF8480B00686421B0FBB7
:101CF000F1F201FB12000A21B0FBF1F0DFF8A815A8
:101D0000405C00E00020DFF898150871DFF8200B38
:101D100000680A21B0FBF1F201FB1200DFF8881520
:101D2000405CDFF87C15487100F07BBDDFF8FC0AF1
:101D3000B0F90000DFF86C1590FBF1F002F032F919
:101D4000DFF8EC1A0860DFF8E40AB0F900000028B8
:101D500001D4002000E04020DFF844150870DFF8CF
:101D6000D40A006842F21071884210D3DFF8C40A26
:101D70000068DFF83015B0FBF1F201FB120042F20F
:101D80001071B0FBF1F0DFF82015405C00E000209E
:101D9000DFF80C154870DFF89C0A00684FF47A7180
:101DA000884210D3DFF88C0A006842F21071B0FB51
:101DB000F1F201FB12004FF47A71B0FBF1F0DFF8A1
:101DC000E814405C00E00020DFF8D4148870DFF8ED
:101DD000640A006864280FD3DFF8580A00684FF4DB
:101DE0007A71B0FBF1F201FB12006421B0FBF1F05B
:101DF000DFF8B414405C00E00020DFF8A414C870E1
:101E0000DFF8300A00680A280ED3DFF8280A0068D5
:101E10006421B0FBF1F201FB12000A21B0FBF1F0EA
:101E2000DFF88414405C00E00020DFF874140871CF
:101E3000DFF8000A00680A21B0FBF1F201FB120092
:101E4000DFF86414405CDFF85814487100F0E9BC16
:101E5000DFF8E409006802F031FCDFF8E0190968F6
:101E600002F044FC02F0AEFC02F09CF8DFF8D0195E
:101E70000860DFF8C4090068002801D4002000E0F1
:101E80004020DFF81C140870DFF8140400214170B2
:101E9000DFF80C0400218170DFF804040021C17018
:101EA000DFF89C0900680A280ED3DFF8940900685F
:101EB0006421B0FBF1F201FB12000A21B0FBF1F04A
:101EC000DFF8E413405C00E00020DFF8D413087171
:101ED000DFF86C0900680A21B0FBF1F201FB120087
:101EE000DFF8C413405CDFF8B813487100F099BC08
:101EF000DFF84409006802F0E1FBDFF86C1C0968B8
:101F000002F0F4FB02F05EFC02F04CF8DFF85C1C1F
:101F10000860DFF824090068002801D4002000E0F0
:101F20004020DFF87C130870DFF874030021417053
:101F3000DFF8380C00684FF47A7188420FD3DFF86D
:101F40002C0C006842F21071B0FBF1F201FB1200A0
:101F50004FF47A71B0FBF1F0D349405C00E000200F
:101F6000CF498870DFF8040C00684FF47A71B0FB39
:101F7000F1F201FB12006421B0FBF1F0CA49405CB0
:101F800050F08000C649C870DFF8E00B006864219B
:101F9000B0FBF1F201FB12000A21B0FBF1F0C249E3
:101FA000405CBF490871DFF8C40B00680A21B0FB30
:101FB000F1F201FB1200BC49405CB949487100F0E4
:101FC00030BCDFF8AC0B00210160B548382101704E
:101FD000DFF89C0B006842F2107188420ED3DFF8E4
:101FE000900B0068AF49B0FBF1F201FB120042F226
:101FF0001071B0FBF1F0AC49405C00E00020A84952
:102000004870DFF86C0B006842F21071B0FBF1F21F
:1020100001FB12004FF47A71B0FBF1F0A249405C71
:1020200050F080009E498870DFF8440B00684FF440
:102030007A71B0FBF1F201FB12006421B0FBF1F008
:102040009949405C9649C870DFF8240B0068642108
:10205000B0FBF1F201FB12000A21B0FBF1F0924952
:10206000405C8F490871DFF8080B00680A21B0FB5B
:10207000F1F201FB12008C49405C89494871D0E3C0
:10208000DFF8F00AB0F90800DFF8EC1A08608448BD
:102090003921017082485421417081487821817032
:1020A0007F480021C1707E4800210171DFF8C80A15
:1020B00000680A21B0FBF1F201FB12007A49405C92
:1020C00077494871ADE37648712101707448002169
:1020D0004170DFF8A80A00684FF47A7188420FD384
:1020E000DFF8980A006842F21071B0FBF1F201FBD0
:1020F00012004FF47A71B0FBF1F06B49405C00E0E4
:10210000002067498870DFF8740A006864280ED3DD
:10211000DFF8680A00684FF47A71B0FBF1F201FB56
:1021200012006421B0FBF1F05F49405C00E0002048
:102130005B49C870DFF8440A00686421B0FBF1F223
:1021400001FB12000A21B0FBF1F05749405C50F04E
:10215000800053490871DFF8240A00680A21B0FBA7
:10216000F1F201FB12005049405C4D49487158E3BF
:10217000DFF80C0A006802F0A1FADFF8081A096813
:1021800002F0B4FA02F01EFBDFF8FC1908604448C4
:10219000D0210170DFF8F0090068002801D4002088
:1021A00000E040203E494870DFF8DC09006801F09B
:1021B000F9FE4FF47A71884211DBDFF8CC09006830
:1021C00001F0F0FE42F2107190FBF1F201FB1200FF
:1021D0004FF47A7190FBF1F03349405C00E000204D
:1021E0002F498870DFF8A009006801F0DBFE642841
:1021F00010DBDFF89409006801F0D4FE4FF47A7127
:1022000090FBF1F201FB1200642190FBF1F02649F2
:10221000405C00E000202249C870DFF86C090068CB
:1022200001F0C0FE0A280FDBDFF85C09006801F04E
:10223000B9FE642190FBF1F201FB12000A2190FB30
:10224000F1F01949405C00E0002015490871DFF801
:102250003809006801F0A6FE0A2190FBF1F201FBAB
:1022600012001149405C0E494871DAE2DFF81C099E
:10227000002101600A48F8210170094800214170DD
:10228000074800218170DFF80409006800280DD498
:1022900000200CE07C0300207C0700203C0800208C
:1022A0001C080020A0860100680300204020DFF801
:1022B000E018C870DFF8D408006801F073FE0A283F
:1022C00010DBDFF8C808006801F06CFE642190FBA9
:1022D000F1F201FB12000A2190FBF1F0DFF8B418D3
:1022E000405C00E00020DFF8A8180871DFF89C08C7
:1022F000006801F057FE0A2190FBF1F201FB120089
:10230000DFF89018405CDFF88818487189E2394896
:10231000C068DFF884180860DFF87408772101705E
:10232000DFF87408006842F21071884210D3DFF8B9
:1023300068080068DFF86418B0FBF1F201FB1200D6
:1023400042F21071B0FBF1F0DFF84818405C00E099
:102350000020DFF83C184870DFF83C0800684FF4B4
:102360007A71884210D3DFF83008006842F21071A9
:10237000B0FBF1F201FB12004FF47A71B0FBF1F007
:10238000DFF81018405C00E00020DFF804188870C7
:10239000DFF804080068642810D3DFF8FC07006841
:1023A0004FF47A71B0FBF1F201FB12004FF47A7135
:1023B000B0FBF1F0DFF8DC17405C00E00020DFF854
:1023C000D017C870DFF8D00700680A2818D3DFF8E4
:1023D000C80700686421B0FBF1F201FB12000A217A
:1023E000B0FBF1F0DFF8AC17405C0AE0D808002041
:1023F00050090020D8050020006AF840400800205D
:102400000020DFF88C170871DFF88C0700680A21BC
:10241000B0FBF1F201FB1200DFF87817405CDFF847
:1024200070174871FDE1DFF87807007BDFF870175F
:10243000497B10EB4100DFF86817897B10EB8100C6
:10244000DFF85C17C97B10EBC100DFF85417097C7B
:1024500010EB0110DFF84817497C10EB4110DFF852
:102460004017897C402202FB0100DFF83417C97C49
:10247000802202FB0100DFF82C170860DFF810074C
:1024800006210170DFF8080754214170DFF81407B6
:102490000078000601D5202000E00020DFF80417B6
:1024A0000978490601D5022100E00021084350F0D7
:1024B0001400DFF8DC168870DFF8E8060078800684
:1024C00001D5202000E00020DFF8D8160978C906E1
:1024D00001D5022100E00021084350F01400DFF88C
:1024E000B016C870DFF8BC060078000701D52020C0
:1024F00000E00020DFF8AC160978490701D5022179
:1025000000E00021084350F01400DFF88416087141
:10251000DFF890060078800701D5202000E0002039
:10252000DFF880160978C90701D5022100E00021F3
:10253000084350F01400DFF85816487171E1DFF8D5
:102540006006407DDFF85816097D10EB4100DFF88A
:102550005016C97D10EB8100DFF84416897D10EB21
:10256000C100DFF844160860DFF824065C21017022
:10257000DFF81C063E214170DFF8140678218170D7
:10258000DFF80C060021C170DFF81C060078000798
:1025900001D5202000E00020DFF80C16097849075B
:1025A00001D5022100E00021084350F01400DFF8BB
:1025B000E0150871DFF8F0050078800701D52020CC
:1025C00000E00020DFF8E0150978C90704D50221F2
:1025D00003E000BF440800200021084350F014002D
:1025E000DFF8AC1548711CE1DFF8B405007EDFF8B8
:1025F000B015497E10EB4100DFF8A415897E10EB81
:102600008100DFF89C15C97E10EBC100DFF8901542
:10261000097F10EB0110DFF88815497F10EB41109E
:10262000DFF888150860DFF8680539210170DFF8E8
:1026300060055C214170DFF858055E218170DFF88C
:102640006C050078800601D5202000E00020DFF82E
:102650005C150978C90601D5022100E00021084374
:1026600050F01400DFF82815C870DFF84005007836
:10267000000701D5202000E00020DFF830150978A0
:10268000490701D5022100E00021084350F0140061
:10269000DFF8FC140871DFF814050078800701D515
:1026A000202000E00020DFF804150978C90705D5CF
:1026B000022104E0B8080020480800200021084357
:1026C00050F01400DFF8C8144871AAE0DFF8C00425
:1026D00050210170DFF8B80454214170DFF8B004D4
:1026E00040218170DFF8B804407800280CD1DFF871
:1026F000A0045C21C170DFF8980471210171DFF83A
:1027000090047121417124E0DFF8940490F82200D4
:1027100000280CD1DFF878040021C170DFF87004C4
:1027200039210171DFF868047621417111E0DFF889
:10273000700490F8220001280BD1DFF85404002126
:10274000C170DFF84C045C210171DFF844045421AE
:10275000417166E0DFF8480490F82500DFF8501476
:102760000860DFF82C0479210170DFF8240450217F
:102770004170DFF81C0450218170DFF8140400213F
:10278000C170DFF82C040068002808D1DFF80004CD
:1027900040210171DFF8F8034021417125E0DFF8A5
:1027A000100400680A280ED3DFF8040400686421CE
:1027B000B0FBF1F201FB12000A21B0FBF1F0DFF8EF
:1027C000D413405C00E00020DFF8C4130871DFF888
:1027D000E00300680A21B0FBF1F201FB1200DFF810
:1027E000B413405CDFF8A81348711AE0DFF8A003C7
:1027F0003E210170DFF8980300214170DFF890035B
:1028000000218170DFF888030021C170DFF88003A8
:1028100000210171DFF87803DFF87813097841713E
:10282000FFE705B0BDE8F08F4C080020BC08002091
:102830005008002054080020C00800203C09002057
:102840005808002080B5DFF86C034078362854D350
:10285000DFF8600340783B284FD2DFF834030021D3
:102860000170DFF82C0300214170DFF84803407845
:10287000DFF8441311EB400010F8020C000703D5F9
:10288000DFF81003407802E0DFF808030078DFF893
:1028900000138870DFF81C034078DFF81C1311EB7D
:1028A000400010F8020C400702D5BA48407801E019
:1028B000B8480078B649C870BE484078BE4911EBA8
:1028C000400010F8020C800702D5B248407801E0C1
:1028D000B0480078AE490871B6484078B64911EB67
:1028E000400010F8020CC00702D5AA48407801E069
:1028F000A8480078A649487118E1AE4840784528B4
:1029000064D3AC4840784B2860D2AA484078AA49A2
:1029100011EB400010F8020C800602D59D4840786B
:1029200001E09C4800789A490870A2484078A24982
:1029300011EB400010F8020CC00602D59548407813
:1029400001E094480078924948709A4840789A4942
:1029500011EB400010F8020C000702D58D484078BA
:1029600001E08C4800788A49887092484078924902
:1029700011EB400010F8020C400702D58548407862
:1029800001E0844800788249C8708A4840788A49C2
:1029900011EB400010F8020C800702D57D4840780A
:1029A00001E07C4800787A49087182484078824981
:1029B00011EB400010F8020CC00702D575484078B2
:1029C00001E07448007872494871AFE07948407876
:1029D000794911EB400030F9020C002801D40020A5
:1029E00000E040206A49087072484078724911EB53
:1029F000400030F9020C01F0D5FA42F21071884221
:102A000014DB6C4840786C4911EB400030F9020C43
:102A100001F0C8FA614990FBF1F201FB120042F2A9
:102A2000107190FBF1F05B49405C00E000205849D8
:102A3000487060484078604911EB400030F9020C62
:102A400001F0B0FA4FF47A71884215DB59484078AA
:102A5000594911EB400030F9020C01F0A3FA42F29F
:102A6000107190FBF1F201FB12004FF47A7190FBB0
:102A7000F1F04849405C00E00020454988704D482D
:102A800040784D4911EB400030F9020C01F08AFA10
:102A9000642814DB47484078474911EB400030F97F
:102AA000020C01F07FFA4FF47A7190FBF1F201FB16
:102AB0001200642190FBF1F03649405C00E00020F8
:102AC0003349C8703B4840783B4911EB400030F92E
:102AD000020C01F067FA0A2813DB364840783649C1
:102AE00011EB400030F9020C01F05CFA642190FB1C
:102AF000F1F201FB12000A2190FBF1F02549405C44
:102B000000E00020224908712A4840782A4911EB48
:102B1000400030F9020C01F045FA0A2190FBF1F275
:102B200001FB12001B49405C194948712348007899
:102B3000002805D11648407950F0800014494871AA
:102B400001BD13487121017011487721417010486F
:102B50003E2181700E483821C1700D4878210171E5
:102B60000B48002141717047400900205C0800209B
:102B70006008002000000020640800206808002091
:102B8000D4080020040900206C08002070080020F0
:102B90001C0800206803002074080020A0860100A3
:102BA00004060020780800207C080020800800200F
:102BB000840800207C030020A80300209D09002039
:102BC00080B500A801F0BCFE0820ADF80000102080
:102BD0008DF8030003208DF8020000A9524801F08F
:102BE00013FE0420ADF8000010208DF80300032030
:102BF0008DF8020000A94C4801F006FE0220ADF855
:102C0000000010208DF8030003208DF8020000A9B9
:102C1000454801F0F9FD1020ADF8000004208DF8C2
:102C2000030003208DF8020000A93F4801F0ECFDED
:102C300040F2012000F009F840F2034000F005F8EE
:102C40004FF4A06000F001F801BD38B50400022186
:102C5000354801F08DFE00200500ADB20C2D16D0D8
:102C6000E00704D50421304801F07FFE03E0042191
:102C70002D4801F07DFE08212B4801F079FEA4B219
:102C800064080821284801F070FE6D1CE5E7022168
:102C9000254801F06AFE01F0E9FE31BD70B507205C
:102CA00005000221204801F063FE00200400A4B2C8
:102CB000042C16D0E80704D504211B4801F055FE6A
:102CC00003E00421184801F053FE0821164801F0E2
:102CD0004FFEEDB26D080821134801F046FE641C5A
:102CE000E5E70221104801F040FE01F0ABFE0020B4
:102CF000060000200400A4B2072C11D07600102199
:102D0000094801F025FE012800D1761C082106485B
:102D100001F02EFE0821044801F027FE641CEAE7BA
:102D20003000C0B270BD00000014014038B5DFF8BB
:102D300028094FF461610180DFF82009B0F9020031
:102D40002421DFF81C2901FB0020C0893C2190FBD5
:102D5000F1F0400001F02CF9DFF80829DFF808391C
:102D600001F03EF901F0BEFBDFF800190880DFF842
:102D7000EC08B0F902002421DFF8E42801FB002070
:102D8000C08901F01FF902000B000020DFF8E018F5
:102D900001F084FA01F080FEDFF8D8180860DFF84F
:102DA000BC08B0F902002421DFF8B42801FB0020A0
:102DB000408A01F007F902000B000020DFF8B81884
:102DC00001F06CFA0022DFF8B43801F009F901F0E3
:102DD00089FBDFF8AC180860DFF8A808DFF87C187A
:102DE000B1F902102422DFF8783802FB0131498A58
:102DF00090FBF1F0DFF890180860DFF86008B0F998
:102E00002E0001F05BFC0400DFF85008B0F902006E
:102E10002421DFF84C2801FB0020C08901F058FC78
:102E20000100200001F080FE5FF0974101F05EFCA0
:102E300001F0C8FCDFF854180860DFF85408DFF828
:102E40004C18096849420160DFF81008B0F95600D3
:102E500001F034FC01F0E6FEDFF83828DFF83838FE
:102E600001F0BEF804000D00DFF8F007B0F9020031
:102E70002421DFF8EC2701FB0020C08901F0A2F833
:102E800002000B002000290001F008FA01F02AFBE3
:102E9000DFF808180880DFF8C407B0F95A0001F01D
:102EA0000DFC0400DFF8B407B0F902002421DFF8BC
:102EB000B02701FB0020C08901F00AFC01002000BE
:102EC00001F032FE5FF0974101F010FC01F07AFC56
:102ED000DFF8CC170860DFF88407B0F98400400001
:102EE000DFF8C0170860DFF87407008FDFF8B81745
:102EF0000880DFF86807B0F902002421DFF86027B6
:102F000001FB0020C08901F0E3FB5FF0974101F075
:102F10000BFEDFF898170860DFF84007B0F90200F1
:102F20002421DFF83C2701FB002041685FF0974037
:102F300001F0DCFB01F076FE0022DFF8743701F0CF
:102F4000ADF901F0CFFADFF86C170860DFF8680719
:102F5000DFF868170160DFF80407B0F97E000A2186
:102F60004843DFF85C170860DFF848070068DFF8BF
:102F7000EC16B1F944104843642190FBF1F0DFF8FE
:102F800044170860DFF82C070068DFF8D016B1F9A5
:102F900046104843642190FBF1F0DFF82C170860DD
:102FA000DFF810070068DFF8B416B1F9481048439D
:102FB000642190FBF1F0DFF814170860DFF8F406E5
:102FC0000068DFF89816B1F94A104843642190FB75
:102FD000F1F0DFF8FC160860DFF8D8060068DFF8CB
:102FE0007C16B1F94C104843642190FBF1F0DFF8F6
:102FF000E4160860DFF8E006DFF8D81609684942F1
:103000000160DFF8B0060068DFF85016B1F93C1037
:103010004843642190FBF1F0DFF8C0160860DFF848
:103020003C06B0F93E000A214843DFF8B4160860B8
:10303000DFF880060068DFF82416B1F980104843F5
:10304000642190FBF1F0DFF89C160860DFF80C06B5
:10305000B0F9820042F210714843DFF88C16086024
:10306000DFF8F805B0F902002421DFF8F42501FBB0
:103070000020406801F0D6FD02000B000020DFF8C0
:103080006C1601F00BF90022DFF8E43501F006F9C7
:1030900001F002FDDFF858160860DFF85806DFF887
:1030A00058160160DFF8B405B0F9220064214843E6
:1030B000DFF848160860DFF8A405008CDFF840163A
:1030C0000880DFF89805B0F9180001F0F7FA04005D
:1030D000DFF88805B0F91A0001F0F0FA01002000CD
:1030E00001F022FDDFF81C160860DFF87005B0F96A
:1030F0001800DFF86815B1F91A104843DFF8081610
:103100000860DFF85805B0F91800DFF85015B1F97C
:1031100018104843DFF8F4150860DFF8EC05006884
:1031200042F21071884210DADFF8DC050068642191
:103130004843DFF8D4150860DFF8D0050068642143
:103140004843DFF8C8150860E7E7DFF81005B0F975
:103150005E0064214843DFF8B8150860DFF8FC041E
:10316000B0F9600064214843DFF8A8150860DFF873
:10317000EC04B0F97C000A214843DFF89C15086094
:10318000DFF8D804B0F986000A214843DFF88C152F
:103190000860DFF88C055FF07F418160DFF8800513
:1031A0005FF08071C160DFF8B404B0F9020024213F
:1031B000DFF8AC2401FB0020C08900F003FF02000F
:1031C0000B000020DFF85C1501F068F801F064FCEA
:1031D0000400DFF88804B0F9500001281BDBDFF899
:1031E0004005002181845FF09740210001F07EFAC4
:1031F00001F0E8FA4FF4FA6190FBF1F04FF47A71C4
:103200004843DFF85814B1F9501090FBF1F0DFF8A3
:103210001015C86103E0DFF8080501218184DFF89B
:103220003C04B0F9520001281CDBDFF8F404002153
:10323000C1845FF09740210001F058FA01F0C2FA12
:1032400040424FF4FA6190FBF1F04FF47A71484339
:10325000DFF80814B1F9521090FBF1F0DFF8C01458
:10326000086203E0DFF8B8040121C184DFF8B80484
:1032700040F28D610161DFF8E403B0F95C0001F018
:103280001DFA01F0CFFC0022DFF8A03401F006F8AF
:103290000022DFF8DC3300F0A3FE01F023F9DFF8B1
:1032A0008814C860DFF8800401F0E3FCDFF88004D4
:1032B00042F2C4010161DFF8A403B0F9100001F08B
:1032C000FDF901F0AFFC0022DFF8603400F0E6FF0A
:1032D0000022DFF89C3300F083FE01F003F9DFF8F1
:1032E0005014C860DFF8480401F0C3FCDFF8440460
:1032F00042F2C4010161DFF86403B0F9100001F08B
:10330000DDF901F08FFC0022DFF8203400F0C6FF69
:103310000022DFF85C3300F063FE01F0E3F8DFF831
:103320001414C860DFF80C0401F0A3FCDFF80804F3
:1033300040F28D610161C948B0F90E0001F0BEF99B
:1033400001F070FC0022DFF8E43300F0A7FF002258
:10335000C74B00F045FE01F0C5F8DFF8DC13C8608C
:10336000DFF8D40301F085FCDFF8D00340F28D6173
:103370000161BA48B0F90E0001F0A0F901F052FC69
:103380000022DFF8A83300F089FF0022B84B00F0DC
:1033900027FE01F0A7F8DFF8A413C860DFF89C034C
:1033A00001F067FCDFF8980340F28D610161AB48E2
:1033B000B0F90E0001F082F901F034FC0022DFF8D0
:1033C0006C3300F06BFF0022A94B00F009FE01F006
:1033D00089F8DFF86C13C860DFF8640301F049FC7A
:1033E0009E48B0F9780001F069F901F01BFC002259
:1033F000DFF8503300F052FF00229D4B00F0F0FD4B
:1034000001F070F8D049C8609448B0F97A0001F032
:1034100055F901F007FC02000B000020C94900F03B
:103420003DFF0022924B00F0DBFD01F05BF8C64946
:103430004861C5480021C163C34800218163C24877
:10344000C2494162C048C24981628448B0F97800EB
:1034500001F034F901F0E6FB0022BA4B00F01EFF48
:103460000022834B00F0BCFD01F03CF8B949C86074
:103470007A48B0F97A0001F021F901F0D3FB02009B
:103480000B000020AF4900F009FF0022784B00F04C
:10349000A7FD01F027F8AF494861AE480021C1639C
:1034A000AC4800218163AB4884494162A948AA49DC
:1034B00081626A48B0F9780001F000F901F0B2FBCE
:1034C0000022A04B00F0EAFE0022694B00F088FDCC
:1034D00001F008F8A149C8606048B0F97A0001F02D
:1034E000EDF801F09FFB02000B000020954900F071
:1034F000D5FE00225E4B00F073FD00F0F3FF97490C
:10350000486196480021C163944800218163934833
:103510005FF4000141629148914981624F48B0F9DE
:10352000780001F0CBF801F07DFB0022854B00F024
:10353000B5FE00224E4B00F053FD00F0D3FF894949
:10354000C8604648B0F97A0001F0B8F801F06AFBAB
:1035500002000B0000207B4900F0A0FE0022444B3B
:1035600000F03EFD00F0BEFF7E4948617D4800212D
:10357000C1637C48002181637A485FF400014162A5
:103580007848774981623548B0F90A0001F096F829
:1035900001F048FB00226B4B00F080FE0022344B10
:1035A00000F01EFD00F09EFF6F49C8602B48B0F987
:1035B0000C0001F083F801F035FB02000B00002045
:1035C0006A4900F06BFE0022294B00F009FD00F073
:1035D00089FF6549486164480021C1636248002150
:1035E00081636148354941625F485B4981621B489C
:1035F000B0F9120001F062F801F014FB00225C4BFC
:1036000000F04CFE00221A4B00F0EAFC00F06AFFCA
:10361000584988601148B0F9140001F04FF801F0E2
:1036200001FB0022524B00F039FE0022104B00F04B
:10363000D7FC00F057FF4F49C8604E480021416356
:103640004C48002181634B485FF08071016149481B
:103650005FF07F41416131BD7C0900200000002006
:10366000DCD400081F85EB51B81E09407E090020FC
:1036700000007041E80800200088C8400000304188
:10368000EC080020C0270900F0080020F408002002
:10369000F8080020E17A14AEA711B6408009002096
:1036A000FC080020000900208209002004090020F5
:1036B0000000384008090020340900203333F300AB
:1036C000380900200C0900201009002014090020EE
:1036D000180900201C0900202009002024090020CE
:1036E000280900202C0900203009002000C0A24039
:1036F0003C09002040090020000016394409002040
:1037000084090020480900204C09002050090020AD
:1037100054090020580900205C090020600900209D
:103720005806002000408F4048070020006AF840FB
:10373000A0060020BC060020D8060020F4060020C9
:103740002C0700200000244048040020CCCC4C0072
:103750003433B3FF8C040020CDCC0CFFD004002008
:10376000000080FF1405002058050020000049409B
:1037700080842E419C05002080B5B348B0F91C0020
:10378000002802D100F077F80EE0AF48B0F91C0035
:10379000012802D100F0CAF806E0AB48B0F91C00DD
:1037A000022801D100F001F801BD00B587B0012168
:1037B0004FF4006001F014FB00A801F0C1F84FF4D1
:1037C0000070ADF8000004208DF8030003208DF890
:1037D000020000A99F4801F017F800A801F0B0F816
:1037E0004FF40060ADF8000004208DF803000320C2
:1037F0008DF8020000A9974801F006F801219648CB
:1038000001F0B9F8954801F067FB01A801F000FD4F
:103810000020ADF804004FF6FF70ADF8080000205E
:10382000ADF80A000020ADF8060001A98B4801F0B0
:10383000BCFB002300220321884801F06AFD04A894
:1038400001F003FD0020ADF8180004A9834801F041
:1038500097FC0121814801F0E0FD002201217F4811
:1038600001F02CFD79480021018001217B4801F005
:1038700006FD07B000BD00B587B001214FF4006020
:1038800001F0AEFA00A801F05BF88020ADF800006E
:1038900004208DF8030003208DF8020000A96D4874
:1038A00000F0B2FF00A801F04BF80120ADF80000D5
:1038B00004208DF8030003208DF8020000A965485C
:1038C00000F0A2FF0121644801F055F8634801F0BF
:1038D00003FB01A801F09CFC0020ADF804004FF6AA
:1038E000FF70ADF808000020ADF80A000020ADF828
:1038F000060001A9594801F058FB0F2300220021BE
:10390000564801F0E6FC04A801F09FFC0020ADF849
:10391000180004A9514801F033FC4C4800210180F3
:1039200001214E4801F0ABFC07B000BD00B587B0E7
:1039300001214FF4006001F053FA0121042001F04D
:103940005EFA00A800F0FCFF8020ADF80000042023
:103950008DF8030003208DF8020000A93D4800F017
:1039600053FF00A800F0ECFF0120ADF80000042098
:103970008DF8030003208DF8020000A9354800F0FF
:1039800043FF0121344800F0F6FF344801F0A4FA67
:1039900001A801F03DFC0020ADF804004FF6FF70D7
:1039A000ADF808000020ADF80A000020ADF80600D0
:1039B00001A92A4801F0F9FA294801F08DFA01A875
:1039C00001F026FC0020ADF804004FF6FF70ADF8C2
:1039D00008000020ADF80A000020ADF8060001A99B
:1039E0001F4801F0E2FA0F23002200211B4801F0DA
:1039F00070FC0F2300220021194801F06AFC04A882
:103A000001F023FC0020ADF8180004A9134801F0D0
:103A1000B7FB04A801F019FC0020ADF8180004A9B8
:103A20000F4801F0ADFB0948002101800848002142
:103A300001800121094801F022FC0121084801F020
:103A40001EFC07B000BD000000000020242C014037
:103A50002408004000180140C0001600002C01405E
:103A6000000800402648B0F902002421254A01FB45
:103A7000002080892249A1F844002148B0F90200C1
:103A80002421204A01FB0020B0F90C0040421C49CF
:103A9000A1F846001A48B0F902002421194A01FB96
:103AA0000020008A1649A1F864001548B0F9020008
:103AB0002421144A01FB0020408B1149A1F8780011
:103AC0000F48B0F9020024210E4A01FB0020808B30
:103AD0000B49A1F87A000A48B0F902002421094AEA
:103AE00001FB0020C08B064948810548B0F902005F
:103AF0002421044A01FB0020008C01498881704781
:103B000000000020DCD4000810B4354AB2F90220CD
:103B10002423344C03FB0242128B4260304AB2F938
:103B2000022024232F4C03FB0242528A82615FF061
:103B300080428369B2FBF3F2C261294AB2F90220E2
:103B40002423284C03FB0242928A0285002202822F
:103B5000002242828269038DB2FBF3F20C23B2FB96
:103B6000F3F21100B0F90820012A09D030D3032A5A
:103B70000BD011D3052A24D01CD3062A13D027E05A
:103B800089B242685218C26022E089B203224368B7
:103B900002FB0132C2601BE089B20522436802FBCE
:103BA0000132C26014E089B20722436802FB01328D
:103BB000C2600DE089B20922436802FB0132C26093
:103BC00006E089B20B22436802FB0132C260FFE7C4
:103BD000054A126852F02002034B1A6010BC70476D
:103BE00000000020DCD40008000401404289028269
:103BF000B0F91220B0F91030D21A8282426AB0F9BC
:103C000014309A184262C268B0F914309A18C2602F
:103C1000028A42828269C3689A4203DAC26883696F
:103C2000D21AC260C268002A03D5C26883699A1892
:103C3000C260C269C3685A43D2131100B0F9282088
:103C400002FB01F25204520C0280B0F90020520231
:103C5000026270474168C160704750F8041B61B14F
:103C600050F8042BD30744BFA9F101039A1800238D
:103C700042F8043B091FFAD1EFE7704710B501F095
:103C80008CFC00F06EF80400E4B2002C01D100F0CE
:103C900019F9E4B2012C01D100F0BBF8E4B2022C16
:103CA00002D1BD480121017010BD38B504000025C6
:103CB00001F083FCA02001F023FD01F0BEFCA4B2C2
:103CC000200AC0B201F01CFD01F0B7FCA4B24FF411
:103CD000807194FBF1F000FB1140C0B201F010FDC7
:103CE00001F0ABFC01F069FCA12001F009FD01F03D
:103CF000A4FC002001F033FD050001F07EFC28004B
:103D0000C0B232BD70B504000D0001F056FCA02019
:103D100001F0F6FC01F091FCA4B2200AC0B201F05F
:103D2000EFFC01F08AFCA4B24FF4807194FBF1F037
:103D300000FB1140C0B201F0E3FC01F07EFC280062
:103D4000C0B201F0DDFC01F078FC01F056FC00206F
:103D50000600B6B23C2E03D200F092FE761CF8E7C5
:103D600070BD38B500F02BF8002820D14FF47A70E0
:103D7000FFF79BFF0400E4B2332C02D100200500C2
:103D80001AE033214FF47A70FFF7BCFF4FF47A70DA
:103D9000FFF78BFF0400E4B2332C02D101200500B1
:103DA0000AE07D48012101700220050004E07A4804
:103DB00001210170022005002800C0B232BD38B5D3
:103DC00000200500AC2140F2E730FFF79BFF40F2F6
:103DD000E730FFF76AFF0400E4B2AC2C04D06E4871
:103DE0000121017001200500532140F2E730FFF767
:103DF00089FF40F2E730FFF758FF0400E4B2532C8C
:103E000004D0654801210170012005002800C0B2DE
:103E100032BD38B500200500ADB24F2D1ED2ADB277
:103E20005E4830F91500B0F500400400A4B24FF42C
:103E3000807094FBF0F101FB1041C9B2ADB2680093
:103E400080B2FFF75FFFA4B2210AC9B2ADB2680029
:103E5000401C80B2FFF756FF6D1CDDE74F4840F273
:103E60003B11018031BD38B5FFF77BFF0020040016
:103E7000A4B24F2C21D2A4B2484830F91400B0F5B6
:103E800000400500ADB24FF4807095FBF0F101FBEE
:103E90001051C9B2A4B2600000F2901080B2FFF7D6
:103EA00031FFADB2290AC9B2A4B2600000F291108C
:103EB00080B2FFF727FF641CDAE7384840F23B1175
:103EC000018031BD38B500200400A4B24F2C18D2B7
:103ED000A4B2600080B2FFF7E8FE0500EDB2A4B224
:103EE0006000401C80B2FFF7E0FE4FF4807101FBE0
:103EF0000050B0F50040A4B2284921F81400641C19
:103F0000E3E7264840F23B110180FEF70FFF31BD89
:103F100038B500200400A4B24F2C1BD2A4B260001C
:103F200000F2901080B2FFF7C0FE0500EDB2A4B21F
:103F3000600000F2911080B2FFF7B7FE4FF480717D
:103F400001FB0050B0F50040A4B2144921F8140060
:103F5000641CE0E7114840F23B110180FEF7E6FEE9
:103F600031BD10B500200400A4B24F2C09D2A4B278
:103F70000A48A4B20A4931F8141020F81410641C3D
:103F8000F2E7FFF746FFFFF76EFF044840F23B11F0
:103F90000180FEF7CBFE10BD950900200000002037
:103FA000A8E90008002801D54042FFE7704700005B
:103FB000010040F10880F446404200F004F851F05E
:103FC00000416047010009D0B0FA80F18840C91C67
:103FD000C1F58461090501EBD0214005704700005F
:103FE000B0B581EA030C0CF0004C40F2FF7515EA05
:103FF00011541DBF15EA1357AC42AF4239E0E41922
:1040000023EA455343F48013C90241F0004141EAD9
:10401000505EC7021100A7FB020200284FF000000B
:10402000EEFB01204FF00001E3FB072118BF42F037
:104030000102401800214941E3FB0E01A4F5806410
:104040000F0302D252004041494154F101046CDD9A
:10405000470872F1004250F1000051EB0451A1F504
:1040600080115CBF41EA0C01B0BD4CEA0551002053
:10407000B0BD05EA1357AC4214BFAF4241E050EA6D
:10408000410E1CBF52EA430E02E061460020B0BD63
:1040900024423C441BD15FEA070EF6D0090302BF5D
:1040A00001460020AEF1140EB1FA81F7AEEB070421
:1040B00001FA07FE0C37C7F1200100FA07F7C840E4
:1040C0004EEA000E23EA455343F48013A2E733F08F
:1040D0000043B3FA83F704BFB2FA82FE77440B3F82
:1040E000E41BB7F1200E2FBF02FA0EF3BB40C7F15D
:1040F000200E22FA0EFE38BF43EA0E03BA40641CBB
:1041000082E750EA410E14BF52EA430E6FF00001FD
:104110004FF4001717EB430F8ABF194617EB410FF7
:10412000B5E74CEA05510020B0BDD4F10104B4F16B
:1041300020070FDAC4F12007520828BF42F001021D
:1041400010FA07F501FA07F7E1BF2A43E0403843C8
:10415000E1400FE0352C98DCC7F1200452EA400220
:1041600020FA07F218BF42F0010231FA07F0A1402D
:104170000A43002172F1004250F1000051EB0C01A2
:10418000B0BD000070B44FF0004591EA030C44BF8D
:104190006B4000F0DCB9841A71EB030603D2001BFC
:1041A000B141121973414FF4001C1CEB410F34BF95
:1041B0007CEB430443E00C0DA4EB1356352E50DC8E
:1041C00045EAC323DB0A45EAC121C912B6F120053D
:1041D0000DDD63FA05F6EB4086EA0305124218BFCF
:1041E00045F00105C01851F100010CD213E062FA4C
:1041F00006F5F2405540F3415A40B340F3405A406F
:104200008018594107D349085FEA30005FEA350555
:1042100028BF45F0010501F58011420875F1004203
:1042200050F1000041EB045170BC4FF4001C1CEB3A
:10423000410F38BF70470020090D090570471CEB7E
:10424000410F10D252EA43060BD0BCEB410F05D808
:104250000C0DAB43661E342EB5DD02E0AB43801877
:10426000594170BC704770BC704700004FF4001C8F
:104270001CEB410F94BF1CEB430F09E041EA030C18
:1042800050EA4C0C52EA0C0C03D28B4208BF82421B
:10429000704714BF9942904270470000F0B540F259
:1042A000FF7581EA030C0CF0004C15EA11541DBF98
:1042B00015EA1357AC42AF42E5E0BC41C1F313012C
:1042C000C3F31303801A994143F4801304D2641E8C
:1042D0004000494180185941C90241EA5051B1FB9F
:1042E000F3F603FB1611A2FB0675D7EBC020A9411C
:1042F00002D2761E80185941C90241EA5051B1FBE1
:10430000F3FE03FB1E11A2FB0E75D7EBC020A941E3
:1043100003D2AEF1010E80185941890241EA905151
:10432000760546EA8E2EB1FBF3F603FB1611A2FBCF
:104330000675D7EB8020A94102D2761E801859411C
:10434000C90241EA50514EEA060EB1FBF3F603FBF7
:104350001611A2FB0675D7EBC020A94102D2761E2A
:1043600080185941C90241EA5051B1FBF3F703FBF0
:104370001711A2FB0735D3EBC020A94167F1000755
:104380000CBF004247F0010766F3D5274FEA1E3104
:10439000B80814F5806412DDBD0775F1004250EBDA
:1043A0000E5051EB045111F5801F5CBF41EA0C0126
:1043B000F0BD4CF07F6141F0E0410020F0BDBD0751
:1043C0006D0840EA0E5041F48011D4F10104B4F1BB
:1043D00020060ADAC4F120060200E04001FA06F3E2
:1043E000E1401843B24015430EE0342C13DCC6F113
:1043F000200445EA40056D0820FA06F2154321FA2B
:1044000006F0A1400D43002175F1004250F100007B
:1044100051EB0C01F0BD00205FEA0C01F0BDCFB9FB
:1044200092185B41B3FA83F704BFB2FA82F6BF1960
:104430000B3FB7F120062FBF02FA06F3BB40C7F1CE
:10444000200622FA06F638BF3343BA401CB1E419FD
:10445000641E33E77F4231F00041B1FA81F404BFBA
:10446000B0FA80F6A4190B3CB4F120062FBF00FA75
:1044700006F1A140C4F1200620FA06F638BF314308
:10448000A0403C1B1AE7AC421ABF05EA1357AF42E3
:1044900012E050EA41061CBF52EA4306BFE750EA69
:1044A0004107304661461CBF41EA0551F0BD52EA62
:1044B000430C08BFC143F0BD00204FF4001616EBBB
:1044C000410F98BF16EB430F08BF16EB410F24BFF7
:1044D000C14305E016EB430F0CBF61464CEA0551A2
:1044E000F0BD0000F446400D40EAC120490006D26C
:1044F00000F013F8004248BF6FF00040604700F042
:104500000CF84FF0004188428CBF0846404260479B
:10451000400D40EAC12049000CD240F00040490D56
:10452000A1F58061491C05D4D1F11F0154BFC840D9
:10453000C01770474FF000007047000070B44FF094
:10454000004591EA030F44BF6B40FFF724BE841A75
:1045500071EB030604D26E40001BB1411219734186
:104560004FF4001C1CEB410F34BF7CEB430684E08E
:104570000C0DA4EB1356362E7DDC012E43DC45EAF0
:10458000C32343EA525312BFD20292025B082405AE
:1045900045EAC12141EA5051D2EBC020994125D4CE
:1045A00007D1B0FA80F610FA06F164D00020203668
:1045B00008E0B1FA81F6B140C6F1200220FA02F219
:1045C0001143B0404FEAF474B4EB465434F00106A2
:1045D0004FEA74040AD8D6F50016760D04F00044AC
:1045E000F04061FA06F25040F1404840C00A40EA0B
:1045F000415021F0004128BF5FEA500550F1000012
:1046000044EBD12137E045EAC323DB0A45EAC12167
:10461000C90AB6F120050EDD42EA0242120CC5F1CC
:10462000200603FA06F6EB4042EA06056D42984181
:1046300061F100010DE062FA06F5F240554063FABF
:1046400006FC82EA0C02F3405A406D42904161EB55
:10465000030111F4801F05D1641E620502D06D00B4
:104660004041494121F48011430875F1004350F164
:10467000000041EB045170BC70471CEB410F15D298
:1046800023F0004352EA43060BD04FEA4C0CBCEB3C
:10469000410F04D80C0D661E342EB7DDEBE7801AEF
:1046A000994150EA410608BF0021E4E708BF1CEB2E
:1046B000430F28BF6FF00001DDE70000002840F144
:1046C0000880F446404200F004F850F00040604793
:1046D00000280AD0B0FA80F18840D1F19D01C905C7
:1046E000020672F1004241EB10207047FF2212EAED
:1046F000D05C1DBF12EAD153944593422BE09C44F9
:10470000D30780EA01021A4043EA002043EA01216C
:10471000A1FB0030410038BF40007CF17F010BDB82
:10472000FE294ADA5B0842EAC15153EA006373F199
:10473000004C51EB10207047D1F1080CDCF1200146
:104740002FDB5B0810FA01F10B4373F1004120FAF3
:104750000CF05041704794451CBF02EAD15393427C
:1047600080EA010202F000421DD0400019D0490049
:1047700017D05BB9634514D00902B1FA81F39940AF
:10478000BCEB030CC00140F00040C1E70002B0FAEE
:1047900080FC10FA0CF0B3EB0C0CC90141F00041A5
:1047A000B6E71000704740000AD0490008D010F169
:1047B000807F94BF11F1807F02E042F0FF4070479C
:1047C000D04370474100090E7F3915D4D1F11F0144
:1047D00014D4400007D2C00140F00040C84048BF98
:1047E0006FF000407047C00140F00040C8404CBF2F
:1047F0004FF00040404270470020704700424FF0A9
:10480000004058BFC0437047F0B500270022002386
:1048100000240025002691F803C01CF00F0C674609
:1048200091F803C05FEACC6C03D591F802C05CEA52
:10483000070791F800C05FEA0C6C3AD0D0F800C0CE
:1048400065465FF0000C6346082B31D25FF0010C27
:104850001CFA03FC6446B1F800C014EA0C0C624672
:10486000A24223D15FEA830C64465FF00F0C1CFA6E
:1048700004FC6646B54317FA04FC5CEA050591F8AA
:1048800003C0BCF1280F06D15FF0010C1CFA03FC39
:10489000C0F814C00AE091F803C0BCF1480F05D17C
:1048A0005FF0010C1CFA03FCC0F810C05B1CCBE7E6
:1048B0000560B1F800C04FF4807EF4453FD3D0F8D6
:1048C00004C065465FF0000C6346082B36D25FF0EB
:1048D000010C13F1080E1CFA0EFC6446B1F800C07E
:1048E00014EA0C0C6246A24226D15FEA830C6446AD
:1048F0005FF00F0C1CFA04FC6646B54317FA04FC83
:104900005CEA050591F803C0BCF1280F07D15FF000
:10491000010C13F1080E1CFA0EFCC0F814C091F83B
:1049200003C0BCF1480F07D15FF0010C13F1080E72
:104930001CFA0EFCC0F810C05B1CC6E74560F0BD59
:104940004FF6FF710180022181700421C170704710
:104950000200002093689BB20B4202D00123180092
:1049600001E000231800C0B2704789B201617047AE
:1049700089B241617047F0B4002200230025002471
:104980002E4E36683500C0F30346340086B232003E
:1049900010F44016B6F5401F08D135F07065274E6B
:1049A000366836F07066254F3E6010E0C60206D5C8
:1049B0000326A64033009D4355F0706507E0460D81
:1049C000F6B2360112FA06F6B54355F07065C9B273
:1049D000002905D0460DF6B2360112FA06F6354327
:1049E000164E3560F0BC704730B400220F2311F032
:1049F0000304E4B2A400A3401A00C9B28B10104C07
:104A000054F823309343C9B28C100D4D45F824302F
:104A1000C9B28B100A4C54F82330C0B211F0030411
:104A2000E4B2A40010FA04F42343C9B28C10044D7C
:104A300045F8243030BC70470000000004000140FD
:104A4000080001400021080080B2082803D200BFFE
:104A500000BF401CF8E770470021080080B2102812
:104A600003D200BF00BF401CF8E7704700210800D8
:104A700080B2502803D200BF00BF401CF8E7704747
:104A80000021080080B2B0F5C86F03D200BF00BF9C
:104A9000401CF7E7704700004FEAF17CBCF1E04CA6
:104AA0002CBFBCF5001F11E05FEA4C0C34BFBCF119
:104AB0007F5F2EE05FEA9C0C4FEA0C1C4FEA3C0C37
:104AC000C10071F100414CEB50707047C90241EADE
:104AD0005051C00218BF41F0010141F000414FEABE
:104AE0006C50C0F10900212810D240EACC7CCCF1F6
:104AF000200C11FA0CF070F10040CCF1200C21FADE
:104B00000CF00CF0004C40EB0C0070474FEACC70FE
:104B10007047490011F5001F04D84FEACC10FF3050
:104B2000C0057047C817704710B5FF2313EAD0546B
:104B30001DBF13EAD1529C429A4239E0A41ADA0707
:104B400080EA0103134042EA012142EA0020421AAE
:104B50003CBF641E01EB4202090AB2FBF1FE01FBFD
:104B60001E221202B2FBF1F001FB10226EF30F20A5
:104B70001202B2FBF1FE4EEA00207F3406DDFE2C6D
:104B800024DA53EA500050EBC45010BDD4F10204B3
:104B900001FB1E2240F08071192C1DDC21FA04F06B
:104BA000C4F12004A140114371F10042584110BDED
:104BB0009C421ABF03EAD1529A420FE080EA010EEA
:104BC0000EF00043400004D0490016D143F0FF40EE
:104BD00010BD490008BFD343180010BD9C4205D149
:104BE000D21AF7D001F00041484010BD4A0212BF6E
:104BF0000846484000F0004010BD4AB90902B1FA29
:104C000081F2914044B1A418C00140F000409EE7F9
:104C1000C90141F0004152420002B0FA80F4A040C4
:104C2000141B94E75FF0FF0C1CEAD05114BF6145E0
:104C300006E0C110400721F0E04101F160517047EA
:104C400079B900F0004100020AD0B0FA80FC00FA05
:104C50000CF001F16051A1EB0C5101EBD0214005AA
:104C6000704741020CBF40F4E0016FF000010020EA
:104C7000704710B504002069E1680918206900F048
:104C80009FFD60612069E1680918E06800F098FD07
:104C9000A06110BD38B504002168606900F0D8FD3E
:104CA0000500A168A06900F0D3FD4019606060684C
:104CB000A06031BDDFF8F811096831F48031DFF808
:104CC000F0211160DFF8E811096831F48021DFF884
:104CD000E02111600100B1F5803F03D0B1F5802FD4
:104CE00009D011E0DFF8C811096851F48031DFF80C
:104CF000C021116008E0DFF8B811096851F4A02163
:104D0000DFF8AC211160FFE7704738B50020009054
:104D100000240025312000F0A2F805000098401C76
:104D20000090EDB2002D03D10098B0F5A06FF1D145
:104D3000312000F094F8002802D00120040001E0A6
:104D4000002004002000C0B232BD0022DFF8643130
:104D50001B681A0032F47C1251EA00031A43DFF890
:104D600054311A607047DFF85011C0B208607047C4
:104D70000021504A126811008908890001434D4AF8
:104D8000116070474B48006810F00C00704700211C
:104D9000484A1268110031F0F0010143454A1160A0
:104DA00070470021434A1268110031F4E061014369
:104DB000404A1160704700213E4A1268110031F4E8
:104DC000605151EAC0013B4A116070470021394AE5
:104DD0001268110031F440410143364A11607047B6
:104DE000C9B2002905D0364A12680243344B1A6012
:104DF00004E0334A12688243314B1A607047C9B2EB
:104E0000002905D02F4A126802432E4B1A6004E095
:104E10002C4A126882432B4B1A607047C9B2002992
:104E200005D0294A12680243274B1A6004E0264A3B
:104E300012688243244B1A607047C9B2002905D01A
:104E4000224A12680243214B1A6004E01F4A12688A
:104E500082431E4B1A6070471D490870704710B49A
:104E60000100002200230020C9B24C09E4B2220054
:104E7000012A03D10E4C2468230008E0022A03D142
:104E80000E4C2468230002E0124C24682300C9B2AF
:104E900011F01F04220001249440234202D0012477
:104EA000200001E000242000C0B210BC70470000C8
:104EB00000100240041002406000424220100240F4
:104EC000181002401C1002400C100240101002404A
:104ED000071002402410024010B504002000B0F179
:104EE000804F20D09F49884226D09F4988422CD0AD
:104EF0009E49884232D09E49884238D09D49884296
:104F00003ED09D49884203D09C49884241D04BE025
:104F100001214FF40060FFF781FF00214FF4006092
:104F2000FFF77CFF40E001210120FFF786FF002111
:104F30000120FFF782FF37E001210220FFF77DFF0C
:104F400000210220FFF779FF2EE001210420FFF766
:104F500074FF00210420FFF770FF25E001210820E5
:104F6000FFF76BFF00210820FFF767FF1CE001211E
:104F70001020FFF762FF00211020FFF75EFF13E013
:104F800001212020FFF759FF00212020FFF755FFC6
:104F90000AE001214FF40050FFF740FF00214FF4D9
:104FA0000050FFF73BFFFFE710BD10B4028812F07E
:104FB0008F0202800288CB884C8823431A430280E8
:104FC0008A8882850A8802856B4A904202D06B4AA1
:104FD000904201D10A7A02860122828210BC704777
:104FE00070B4002300240022058C4FF6FE76354075
:104FF0000584058C2C0085882A00058B2B004FF634
:105000008F752B400D882B434FF6FD752C400D8975
:105010002C434D882C43CD888586574DA84202D01D
:10502000564DA84213D14FF6F7752C404D892C43AD
:105030004FF6FB752C408D882C4347F6FF652A40C0
:1050400047F6FF552A408D892A43CD892A4382801D
:105050000383048470BC704770B4002300240022D2
:10506000058C4FF6EF7635400584058C2C0085883D
:105070002A00058B2B0048F6FF752B400D8853EA5C
:1050800005234FF6DF752C400D8954EA05144D8831
:1050900054EA0514CD880587374DA84202D0374D14
:1050A000A84217D14FF67F752C404D8954EA05145C
:1050B0004FF6BF752C408D8854EA051447F6FF352E
:1050C0002A4047F2FF752A408D8952EA8502CD8930
:1050D00052EA850282800383048470BC704770B4F6
:1050E000002300240022058C4FF6FF66354005841E
:1050F000058C2C0085882A00858B2B004FF68F7538
:105100002B400D882B434FF6FF552C400D8954EA58
:1051100005244D8854EA0524CD888587164DA8427C
:1051200002D0164DA84217D14FF2FF752C404D8981
:1051300054EA05244FF6FF352C408D8854EA0524A7
:1051400046F6FF752A4045F6FF752A408D8952EADA
:105150000512CD8952EA051282808383048470BCD3
:10516000704700000004004000080040000C0040B0
:105170000010004000140040002C014000340140A9
:1051800038B504000D00288800280AD12B89AA8888
:105190006988200000F049F9E988200000F00BF947
:1051A00025E0288804280AD12B89AA88698820004C
:1051B00000F057F9E988200000F006F917E0288888
:1051C00008280AD12B89AA886988200000F06AF98A
:1051D000E988200000F002F909E02B89AA88698893
:1051E000200000F080F9E988200000F000F931BDCE
:1051F0000A884B881A438B881A43CB881A430B8939
:105200001A434B891A438B891A43A0F844207047EC
:105210004FF6FF718180002101800021C1800021B3
:1052200041800021017270470021018000214180EE
:10523000002181800021C180002101810021418164
:10524000002181810021C18170470021018000215E
:105250004180012181800021C180002101817047AE
:105260000021018000214180002181800021C18036
:105270000021018100214181002181817047C9B253
:10528000002904D0028852F00102028004E0028862
:1052900040F2FE331A4002807047C9B2002906D09E
:1052A000B0F8442052F40042A0F8442005E0B0F8E1
:1052B00044205204520CA0F844207047D2B2002A75
:1052C00003D083890B43838102E083898B438381ED
:1052D0007047F8B504000D0016001F003B009BB29C
:1052E000320092B2290089B2200000F005F820892E
:1052F00050F480402081F1BD30B4002405892C0099
:10530000E4B252EA010555EA03252C43048130BC7E
:105310007047F0B400240025002607893C00078B65
:105320003D00078C3E004FF6F8773C400C434FF6AB
:10533000FC473D4040F201173D434FF6DD773E40CC
:1053400052EA03173E43048105830684F0BC70478C
:10535000C9B2002904D0028852F08002028004E021
:10536000028840F27F331A40028070470022038B8C
:105370001A004FF6F7731A400A430283704700225F
:10538000038B1A004FF2FF731A4052EA0122028384
:1053900070470022838B1A004FF6F7731A400A43B6
:1053A0008283704782884FF68F731A40828082888A
:1053B0000A4382807047028B4FF6F3731A400283D0
:1053C000028B0A4302837047028B4FF2FF331A406D
:1053D0000283028B52EA012202837047828B4FF6CE
:1053E000F3731A408283828B0A4382837047828BD5
:1053F0004FF2FF331A408283828B52EA012282836A
:10540000704702000020138A0B4202D001231800CB
:1054100001E000231800C0B2704789B2CA4302827B
:10542000704789B2CA4302827047F0B40024002555
:10543000068C4FF6FE773E400684068B3400068CC1
:1054400035004FF60C76344052EA031634434FF6DB
:10545000FD76354051F00106354304830584F0BCE8
:105460007047F0B4002500260024078C4FF6EF7C2F
:105470001CEA07070784078B3D00078C3E000F01DD
:105480003C0040F6FF473D4055EA033555EA02250A
:105490004FF6DF773E4054F010073E430583068405
:1054A000F0BC7047F0B4002600240025078C4FF6AE
:1054B000FF6C1CEA07070784878B3E00078C3C00C3
:1054C0000F023D004FF60C773E4052EA03173E4371
:1054D0004FF6FF573C404FF480772F433C43868381
:1054E0000484F0BC7047F0B4002600240025078C2B
:1054F0004EF6FF7C1CEA07070784878B3E00078C6B
:105500003C000F033D0040F6FF473E401F0357EAB3
:1055100002273E434DF6FF773C4055F480573C430D
:1055200086830484F0BC704780B500A8FFF708FAB2
:105530004FF40050ADF8000004208DF80300032064
:105540008DF8020000A99D48FFF75EF901BD80B506
:1055500000A8FFF7F5F94FF40050ADF80000102057
:105560008DF8030003208DF8020000A99348FFF78F
:105570004BF901BD80B500A8FFF7E2F94FF4804078
:10558000ADF8000010208DF8030003208DF8020014
:1055900000A98A48FFF738F901BD80B5FFF7D7FFAA
:1055A000FFF7E8FF4FF400518448FFF7DEF94FF4AE
:1055B00080418248FFF7D9F901BD80B5FFF7C7FFE9
:1055C0004FF400517D48FFF7D0F94FF480417B48FC
:1055D000FFF7CBF9FFF740FAFFF73EFA4FF400511F
:1055E0007648FFF7C5F9FFF737FAFFF735FA4FF4BA
:1055F00080417248FFF7BCF901BD80B5FFF7A7FFF6
:105600004FF480416D48FFF7B3F94FF400516B48F8
:10561000FFF7AEF9FFF720FAFFF71EFA4FF48041CB
:105620006648FFF7A2F94FF400516448FFF79DF96F
:10563000FFF712FAFFF710FA01BD38B50024002574
:10564000FFF772FF4FF400515C48FFF78EF9FFF748
:10565000F9F94FF480415948FFF787F9FFF7F2F95C
:105660004FF400515548FFF773F9002808D0641C27
:10567000E4B2FB2CF4D3FFF7C0FF01200500EFE7F5
:105680004FF480414D48FFF773F92800C0B232BD96
:1056900080B54FF480414948FFF76AF9FFF757FF9B
:1056A0004FF400514548FFF763F9FFF7D5F94FF480
:1056B00080414248FFF759F9FFF7CEF94FF4804196
:1056C0003E48FFF755F901BD80B54FF480413B4896
:1056D000FFF74EF9FFF73BFF4FF400513748FFF754
:1056E00044F9FFF7B9F94FF480413448FFF73DF929
:1056F000FFF7B2F94FF480413048FFF739F901BDA7
:1057000038B50400FFF723FF4FF480412B48FFF723
:105710002FF900200500EDB2082D1FD2200605D577
:105720004FF400512548FFF720F904E04FF40051F1
:105730002248FFF71DF96400FFF78EF94FF480410E
:105740001E48FFF712F9FFF787F94FF480411B4815
:10575000FFF70EF9FFF780F96D1CDCE731BD70B57E
:1057600004000026FFF7E0FE00200500EDB2082D42
:1057700018D24FF480411148FFF7FAF8FFF76CF99F
:105780004FF480410D48FFF7F0F876004FF40051D8
:105790000A48FFF7DDF8002800D0761CFFF752F921
:1057A0006D1CE3E7E4B2002C02D1FFF78DFF01E0AE
:1057B000FFF76EFF3000C0B270BD00000014014062
:1057C00091F0000F04BF6FF00040704710B54FF02C
:1057D000010E90EA010F48BF4FF0000E002848BFAD
:1057E0004042002948BF4942B0FA80F4182CA8BFB3
:1057F000182400FA04F2C4F1180CB2FBF1F0B0FA6C
:1058000080F39C45A4BFCEF1004010BD01FB1022E7
:10581000B2FA82F464450EDAACEB040C02FA04F23C
:1058200000FA04F0B2FBF1F301FB13221844B2FAC0
:1058300082F46445F0DD02FA0CF200FA0CF0B2FBDF
:10584000F1F318449EF0000F08BF404210BD000065
:1058500080FB01014FEA106000EB0120704700005F
:10586000704780B501F06DFD0C4908810C48007847
:10587000012802D10B48012101700B480B4909880E
:1058800001800648FEF7E6F9094820210160094831
:10589000006830F020000749086001BDD8050020ED
:1058A000A9090020AA0900207A090020240000404C
:1058B00014040140000401402DE9F84301F041FDCA
:1058C000DFF8101D0881DFF8100D01F085FEDFF80C
:1058D0000C0DDFF8041D09680160DFF8000DFFF70B
:1058E000D9F9DFF8FC0C006842F21071884206D248
:1058F000DFF8EC0C0068401CDFF8E41C0860DFF8FF
:10590000E40C006842F21071884206D2DFF8D40C31
:105910000068401CDFF8CC1C0860DFF8CC0C007875
:1059200001280DD1DFF8C40C00684FF6FE718842E3
:1059300006D2DFF8B80C0068401CDFF8B01C086025
:10594000DFF8AC0C007801280DD1DFF8A80C006856
:105950004FF6FE71884206D2DFF8980C0068401CB2
:10596000DFF8901C0860DFF8900C007801280DD15A
:10597000DFF8880C00684FF6FE71884206D2DFF827
:105980007C0C0068401CDFF8741C0860DFF8700CA9
:1059900000684FF47A71884206D2DFF8640C006820
:1059A000401CDFF85C1C0860DFF8580C0078012808
:1059B0000DD1DFF8540C00684FF6FE71884206D214
:1059C000DFF8440C0068401CDFF83C1C0860DFF87E
:1059D000080E007801280DD1DFF8000E00684FF6A0
:1059E000FE71884206D2DFF8F40D0068401CDFF833
:1059F000EC1D0860DFF8DC0BDFF8E41D098841814D
:105A0000DFF8D00BFEF7F2F8DFF8C80B4089DFF8BB
:105A1000D41D0880DFF8CC0D01F03AFEDFF8C40D8C
:105A2000C068FEF7BFFADFF8C01DB1F902102422EA
:105A3000DFF8B83D02FB0131B1F9101081420DDAF7
:105A4000DFF8AC0D01210170DFF8A80D0121017014
:105A50000021DFF8A40DFFF720FC03E0DFF8940D30
:105A600000210170DFF8940D01F050FDDFF8900D7A
:105A7000006801284DDBDFF8840D8068FEF792FA9C
:105A8000DFF8801D0968814213DBDFF8700DC06804
:105A9000FEF788FADFF86C1D0968814209DBDFF840
:105AA0005C0D0069FEF77EFADFF8581D0968814237
:105AB00023DADFF8540D00684EF66021884206D2E2
:105AC000DFF8440D0068401CDFF83C1D0860DFF87B
:105AD000300D0068DFF8301D0968884219D20021B6
